:020000040800F2
:100000000050002021020008290200082D020008EB
:10001000A1020008A5020008ED020008000000008F
:100020000000000000000000000000003503000890
:1000300039030008000000003D03000841030008E8
:100040005103000851030008510300085103000840
:100050005103000851030008510300085103000830
:100060005103000851030008510300089D0C0008CB
:10007000CD0C0008FD0C00082D0D00085D0D0008DA
:100080008D0D0008BD0D0008510300085103000844
:1000900051030008510300085103000851030008F0
:1000A00051030008510300085103000851030008E0
:1000B00051030008510300085103000851030008D0
:1000C00051030008510300085103000851030008C0
:1000D000510300085512000851030008510300089D
:1000E00051030008510300085103000800000000FC
:1000F0000000000000000000000000000000000000
:1001000000000000000000005FF808F100B583B0B7
:1001100000F0AEF9304B314A1360314A1360314B75
:10012000314A03E011681960043304322F498B42CD
:10013000F8D32A4B1A682E4B9A4204D1284B1A68DE
:100140002C4B9A4200D0FEE7234B2B4A13602B4ADC
:1001500013602B4B02E000221A600433294A9342B9
:10016000F9D3254B1B6813B9244B1B6803B1FEE779
:1001700000F08AF9694601A800F024F9224C234BCB
:100180001C1BA410002504E01F4B53F82530984792
:100190000135AC42F8DC1E4C1E4B1C1BA410002584
:1001A00004E01B4B53F8253098470135AC42F8DC8E
:1001B0000099019800F0E2FB0546174C174B1C1BF9
:1001C000A41004E0013C144B53F824309847002C51
:1001D000F8DC284600F0D2F8BABADECA00000020E7
:1001E0008C000020000000200C1E00089000002061
:1001F000785634123254769890000020E80500209A
:1002000090000020EC0500207C0300087C0300081F
:100210007C0300087C0300087C0300087C030008C2
:1002200008B5FFF773FF00BF00BEFEE71EF0040F26
:100230000CBFEFF30880EFF309807146414A104785
:100240002DE9F04182B004468846134B5E6B9F6BEC
:100250009D6A1B6B13F0020F0DD00F4BDB6A002B56
:1002600009DA4BF6AB6100F08BF920B14FF0004298
:10027000094BDA620CE0094800F0ACF8CDF80080D8
:100280003B4632462946204600F002F900BEFEE712
:1002900002B0BDE8F08100BF00ED00E01C1D0008C9
:1002A00000BEFEE71EF0040F0CBFEFF30880EFF373
:1002B00009807146244A10472DE9F04182B0044676
:1002C0008846084B5E6B9F6B9D6A074800F082F87A
:1002D000CDF800803B4632462946204600F0D8F84B
:1002E00000BEFEE700ED00E02C1D00081EF0040F2C
:1002F0000CBFEFF30880EFF309807146134A1047F3
:100300002DE9F04182B004468846084B5E6B9F6B36
:100310009D6A074800F05EF8CDF800803B46324603
:100320002946204600F0B4F800BEFEE700ED00E0EC
:10033000381D000800BEFEE700BEFEE700BEFEE777
:100340007047000041020008B902000801030008DC
:0403500000BEFEE706
:100354000C1E000800000020900000200C1E000865
:10036400000000000000000090000020EC050020C8
:08037400000000000000000081
:10037C00FEE700BF08B50D4B1B6813B90C4A0B4BBD
:10038C001A600A4B1A68C31C23F00303134409496F
:10039C008B4206D900F0E4FF0C2303604FF0FF30D2
:1003AC0008BD02490B60104608BD00BF9400002038
:1003BC00EC050020004C002001230360014B0B6076
:1003CC00704700BF040000200FB400B583B004AB2D
:1003DC0053F8042B01938021064800F0F3FF00280A
:1003EC0003DD0146034800F039F803B05DF804EB77
:1003FC0004B070479C0000202DE9F04385B0044602
:10040C000F46435613BB042528462146ABBE044673
:10041C001FE03546102E28BF1025002306E014F9E6
:10042C00011B04AA1A4402F8101C0133AB42F6D388
:10043C0004AA1344002203F8102CE9464FF00408D8
:10044C0040464946ABBE8046761B00E00E46002E69
:10045C00DFD1384605B0BDE8F08300BF08B5FFF723
:10046C00CBFF08BD08B500F0FBF8024B024A9A60BE
:10047C0008BD00BF00ED00E00000000808B500F06A
:10048C0017F908BDF8B504460D4617461E46264812
:10049C00FFF79AFF21682548FFF796FF616824480B
:1004AC00FFF792FFA1682348FFF78EFFE16822480F
:1004BC00FFF78AFF21692148FFF786FF6169204811
:1004CC00FFF782FFA1691F48FFF77EFFE1691E4815
:1004DC00FFF77AFF1D48FFF777FF29461C48FFF707
:1004EC0073FF1C4CE16A1C48FFF76EFF216B1B4825
:1004FC00FFF76AFFE16B1A48FFF766FF15F0800FF4
:10050C0003D039461748FFF75FFF15F4004F03D0AF
:10051C0031461548FFF758FF1448FFF755FF069969
:10052C001348FFF751FFF8BD001C0008101C000811
:10053C00201C0008301C0008401C0008501C00083F
:10054C00601C0008701C0008801C0008901C00082F
:10055C009C1C000800ED00E0AC1C0008BC1C000852
:10056C00CC1C0008DC1C0008EC1C0008FC1C00085F
:10057C00041D000883691A888A4207D10268033A6D
:10058C00012A05D80233836101207047002070478F
:10059C000020704782B00023019300932C4A13680B
:1005AC0043F4803313602A4B1B6803F4003300932D
:1005BC00019B01330193009B1BB9019BB3F5A06F09
:1005CC00F1D1234B1B6813F4003F02D0012300939D
:1005DC0001E000230093009B012B36D11D4B1A68C0
:1005EC0042F010021A601A6822F003021A601A68AC
:1005FC0042F002021A60A3F580535A685A605A6896
:10060C005A605A6842F480625A605A6822F47C122A
:10061C005A605A6842F4E8125A601A6842F08072C2
:10062C001A600B4B1B6813F0007FFAD0084B5A680A
:10063C0022F003025A605A6842F002025A60044BDC
:10064C005B6803F00C03082BF9D102B0704700BFB4
:10065C00001002400020024008B5FFF79BFF08BDC8
:10066C0008B5104B1A6842F001021A6059680E4A1C
:10067C000A405A601A6822F0847222F480321A609E
:10068C001A6822F480221A605A6822F4FE025A6018
:10069C004FF41F029A60FFF7DFFF4FF00062034B2D
:1006AC009A6008BD001002400000FFF800ED00E069
:1006BC001F4B5B6803F00C03042B06D0082B08D0EF
:1006CC003BBB1C4A1C4B1A6026E01A4A1A4B1A6098
:1006DC0022E0174A53685268C3F38343023312F47F
:1006EC00803F05D1154A02FB03F3134A136013E054
:1006FC000F4A526812F4003F05D0104A02FB03F374
:10070C000D4A136008E00B4A02FB03F30A4A13601C
:10071C0002E0084A084B1A60054B5B68C3F30313ED
:10072C00074AD35CDAB204490B68D3400B607047BC
:10073C000010024000127A001C00002000093D004D
:10074C000C000020034A136843F0BF6343F002130C
:10075C00136070470CED00E008B5154B1B68012BBE
:10076C000ED013B1022B17D008BD1021114800F088
:10077C001BFD114800F036FD03220D4B1A6008BD1D
:10078C0040F20C410B4800F00FFD0C4800F02AFD24
:10079C000322074B1A6008BD0421064800F004FD33
:1007AC00074800F01FFD0322014B1A6008BD00BF73
:1007BC002401002030010020D1070008C9080008DE
:1007CC003D08000808B5144B1B78BB2B15D1124BF8
:1007DC009B78AB2B0DD1104BD978104A1170D9687E
:1007EC000F4A11609A680F4B1A6001220E4BDA7097
:1007FC0006E002220C4BDA7002E002220A4BDA709D
:10080C000948BB230370CD238370042100F0B6FC90
:10081C000122064B1A6008BD300100202C0100207B
:10082C00200100201C0100202801002024010020B0
:10083C0010B582B01A4B1B78BB2B25D1184B9B786B
:10084C00DE2B1DD1164BDB78CC2B15D10122154B91
:10085C00DA7002AC144B44F8043D042221461348D0
:10086C0000F010FC124B1B68019304222146114B23
:10087C00186800F007FC0AE002220A4BDA7006E066
:10088C000222084BDA7002E00222064BDA700421D5
:10089C00044800F073FC084800F09CFC02B010BD4A
:1008AC003001002028010020DDCCBBAAF81F000875
:1008BC0020010020200000205107000808B5274B1C
:1008CC001B78BB2B37D1254B9B78BC2B2FD1244BC2
:1008DC001B78AA2B27D100F0C9FB204B9A6803F197
:1008EC000C01586800F0CEFB002003460AE000BF64
:1008FC001A4AD118097B52689A5C914200D00120A7
:10090C0001339BB2154A92689342F0D338B9012156
:10091C00144BD97014490B689B1A0B600EE0022221
:10092C00104BDA700AE002220E4BDA7006E002225B
:10093C000C4BDA7002E002220A4BDA700A4B1B688D
:10094C001BB90222094B1A6002E00122074B1A6004
:10095C000421044800F012FC08BD00BF3001002047
:10096C002C010020280100201C0100202401002063
:10097C0008B5214B1B68214A934211D0B3F1FF3FBC
:10098C0023D002F14D42A2F58712A2F6CD6293421A
:10099C0030D120498D461A4B1B681B68984708BDFF
:1009AC000121184800F07CFA0121174800F078FA70
:1009BC000121164800F074FA0121154800F070FA74
:1009CC0000F08EFBFFF7C8FEFCE701210D4800F09C
:1009DC0067FA01210C4800F063FA01210B4800F082
:1009EC005FFA01210A4800F05BFA00F079FBFFF78F
:1009FC00B3FEFCE708BD00BFF81F0008AABBCCDDA6
:100A0C0020000020040000201000002000400020E6
:100A1C0001000080005000202DE9F04F89B0D0E992
:100A2C000289D0E9042348EA020849EA030901884B
:100A3C0000230C46CDE900BC84469CE014F0010F69
:100A4C0000F08E8008F00F020C2A38D0082A36D01D
:100A5C00DCF818709E000F21A6F1200EC6F12000C4
:100A6C0001FA0EF521FA00F005430395B14002910D
:100A7C00D7E90001DDE902AB20EA0A0A21EA0B0BF7
:100A8C0050465946C7E90001DCF81870D0B2C6F1DF
:100A9C002002002500FA0EF10D4320FA02F2154354
:100AAC00019500FA06F20092D7E90001DDE9005643
:100ABC0005430E4328463146C7E9000150E00C2A95
:100ACC0001D0082A5CD1DCF818E09F000F21A7F1B7
:100ADC00200AC7F1200001FA0AF521FA00F00543BB
:100AEC000595B9400491DEE90001DDE904AB20EA8B
:100AFC000A0A21EA0B0B50465946CEE90001DCF8F4
:100B0C0018E00821A7F1200AC7F1200001FA0AF524
:100B1C0021FA00F005430795B9400691DEE9000182
:100B2C00DDE906AB4AEA000A4BEA010B504659468E
:100B3C00CEE90001082A09D1DCF81810012202FACA
:100B4C0003F0CA6822EA0002CA6009E00C2A19D133
:100B5C00DCF81810012202FA03F6CA683243CA60A4
:100B6C004FEA181242EA09724FEA19119046894667
:100B7C0064080133DBB20F2B7FF660AF002002E07C
:100B8C00012000E0012009B0BDE8F08FF8B5002588
:100B9C002C4640E004EB44021301214A134493F821
:100BAC002C20062A33D81E4F6600331919017B18E6
:100BBC0078585968084399680843D96808431969F3
:100BCC0008435969084399690843D9690843196A64
:100BDC000843596A0843996A084302EB8202910060
:100BEC0001F1804202F50032906093F82C000B303A
:100BFC0000F00AF9284345B2264433011F4497F804
:100C0C002C000B3000F0EEF82843C5B201E045F0A3
:100C1C0001050134E4B2022CBCD92846F8BD00BF52
:100C2C00481D0008F0B4074630B929B9062B03D982
:100C3C004FF6FE7082420DD8084C9D00EE18B000A5
:100C4C002044C26047610161816841F0010181600B
:100C5C00002000E00120F0BC704700BF0000024003
:100C6C0070B4024608B906290CD8166807484C001F
:100C7C006518AB00C518C65053686B609268AA60C3
:100C8C00002000E0012070BC704700BF78050020F8
:100C9C0008B5094B1B6813F0020F0CD0064B5A68B1
:100CAC0042F002025A609A6822F001029A60034BE9
:100CBC001B6803B1984708BD00000240780500206E
:100CCC0008B5094B1B6813F0200F0CD0064B5A6863
:100CDC0042F020025A60DA6922F00102DA61034B19
:100CEC00DB6803B1984708BD00000240780500207E
:100CFC0008B5094B1B6813F4007F0CD0064B5A68DF
:100D0C0042F400725A601A6B22F001021A63034B10
:100D1C009B6903B1984708BD00000240780500208C
:100D2C0008B5094B1B6813F4005F0CD0064B5A68CE
:100D3C0042F400525A605A6C22F001025A64034B7E
:100D4C005B6A03B1984708BD00000240780500209B
:100D5C0008B5094B1B6813F4003F0CD0064B5A68BE
:100D6C0042F400325A609A6D22F001029A65034BEC
:100D7C001B6B03B1984708BD0000024078050020AA
:100D8C0008B5094B1B6813F4001F0CD0064B5A68AE
:100D9C0042F400125A60DA6E22F00102DA66034B5A
:100DAC00DB6B03B1984708BD0000024078050020BA
:100DBC0008B50A4B1B6813F0007F0ED0074B5A681E
:100DCC0042F000725A60D3F8802022F00102C3F87E
:100DDC008020034B9B6C03B1984708BD0000024078
:100DEC0078050020EF280BD8064B1A68410900F053
:100DFC001F00012303FA00F042F821000020704785
:100E0C000120704724000020EF280CD8074B1968EC
:100E1C00430900F01F00012202FA00F0603341F890
:100E2C002300002070470120704700BF24000020E1
:100E3C00184B1B6813F00C0203D1174B03600020F6
:100E4C007047042A03D1144B036000207047082A12
:100E5C001BD113F4403302D1104B03600AE0B3F5FD
:100E6C00403F02D10D4B036004E0B3F5803F0ED13F
:100E7C00094B0360074B1B68C3F3834302330268BF
:100E8C0003FB02F303600020704701207047012030
:100E9C00704700BF0410024000127A0000093D00A8
:100EAC0000280FDA39B1012932D11D4A13681843D1
:100EBC001060002070471A4A136823EA0000106083
:100ECC0000207047830F012B0FD139B1012921D19B
:100EDC00144A13681843106000207047114A1368B5
:100EEC0023EA0000106000207047430F012B13D140
:100EFC0039B1012912D10C4A136818431060002033
:100F0C007047094A136823EA0000106000207047FC
:100F1C000020704700207047012070470020704768
:100F2C00141002401C1002401810024030B583B05F
:100F3C0004460D4602A8002340F8043DFFF778FF55
:100F4C00002840F08180019A2A60474B1B6813F0FF
:100F5C00F00326D0802B02D152082A6021E0902B7E
:100F6C0002D192082A601CE0A02B02D1D2082A6080
:100F7C0017E0B02B02D112092A6012E0C02B02D16B
:100F8C0092092A600DE0D02B02D1D2092A6008E028
:100F9C00E02B02D1120A2A6003E0F02B56D1520A40
:100FAC002A604D2C02D100BF00205AE04E2C24D1D7
:100FBC002D4B1B6813F4E0634AD0B3F5806F04D15A
:100FCC002B685B082B6000204BE0B3F5A06F04D1BD
:100FDC002B689B082B60002043E0B3F5C06F04D155
:100FEC002B68DB082B6000203BE0B3F5E06F31D1C0
:100FFC002B681B092B60002033E04F2C2CD11A4B93
:10100C001B6813F4605329D0B3F5005F04D12B682F
:10101C005B082B60002024E0B3F5205F04D12B6823
:10102C009B082B6000201CE0B3F5405F04D12B68BB
:10103C00DB082B60002014E0B3F5605F10D12B6847
:10104C001B092B6000200CE001200AE0012008E0C5
:10105C00002006E0012004E0012002E0002000E076
:10106C00012003B030BD00BF04100240034B044A02
:10107C005A6002F188325A60704700BF002002406B
:10108C0023016745154BDB6813F0010FFAD130B41F
:10109C00124C236943F001032361002304E031F86F
:1010AC00134020F8134001335C00151B012DF6D8BA
:1010BC00944203D00B5D43F47F430353074BDB682F
:1010CC0013F0010FFAD1054BDA6842F02002DA6016
:1010DC001A6922F001021A6130BC704700200240EC
:1010EC0070B58AB000224FF44863CDE90423002286
:1010FC002023CDE906231C4B08930AA84FF4C063A8
:10110C0020F8203DFFF788FC0546184C21464F205F
:10111C00FFF70CFF2843C5B22468154AA2FB04361E
:10112C00B60B4FF4163303FB16442401A2FB043414
:10113C00A40B01220F4B1A70FFF728FD0E4A5369BE
:10114C0043F0C0035361136943F4804343F06003DD
:10115C0013610022009213462146304600F04AF8F3
:10116C002843C0B20AB070BD00080140CC05002075
:10117C00B5814E1B3C0500200038014038B50446B3
:10118C000D460648064B03600321FFF769FD032358
:10119C002A4604492046FFF745FD38BDD0050020FE
:1011AC00351300080438014038B504460D4606488E
:1011BC00064B03600421FFF753FD04232A46044920
:1011CC002046FFF72FFD38BDDC0500205D1300081D
:1011DC000438014018B108B500F02AF808BD012008
:1011EC00704700BF18B108B500F028F808BD012001
:1011FC00704700BF10B541EA00110C4CA1601343BD
:10120C00E1680B4343F4005343F00C03E3602269A1
:10121C00029B134323612520FFF7F6FD044625208E
:10122C00FFF7E0FD2043C0B210BD00BF0038014005
:10123C00014B18600020704748050020014B1860D6
:10124C00002070474005002008B5304B1B78002B60
:10125C004DD12F4B1B6813F0400F1FD023F04003D0
:10126C002B4A13602B4B1B7B012B17D1294B5A6834
:10127C009B689A4208D0274B1968895C244A5160B4
:10128C005A6801325A6009E0224B00225A609A6077
:10129C001A601A73204B1B6803B198471C4B1B68D0
:1012AC0013F0200F23D01D4A127B012A1FD11B4A99
:1012BC005168926891420BD0154923F020030B60C2
:1012CC00164A106853684968C154013353600EE0E4
:1012DC00124B00221A605A609A601A730C4AD36837
:1012EC0023F02003D3600E4B1B6803B19847084BC7
:1012FC001B6813F4807F07D023F48073044A1360B7
:10130C00084B1B6803B1984708BD00BF3C05002083
:10131C00003801405C050020480500204C050020E9
:10132C00400500204405002008B5074B1B6813F04E
:10133C00400FFAD023F04003034A1360034B1B68A1
:10134C0003B1984708BD00BF003801404805002094
:10135C0008B5024B1B6803B1984708BD4005002037
:10136C00014B1868704700BF8800002030B5141E70
:10137C0005469BB0184604DA8B232B604FF0FF30E8
:10138C001DE04FF40273ADF80C300CBF234604F192
:10139C00FF33029305934FF6FF7300910491ADF860
:1013AC000E3002461E9B6946284600F073F8431C1B
:1013BC00BCBF8B232B6014B1009B00221A701BB096
:1013CC0030BD000007B5009313460A46014603489A
:1013DC000068FFF7CBFF03B05DF804FB880000202A
:1013EC002DE9F0478E6882469E420C4691469846FF
:1013FC003ED88A8912F4906F3AD025680969022385
:10140C006F1A656905EB450595FBF3F57B1C4344A9
:10141C009D4238BF1D4653050FD5294600F04AFBA7
:10142C00064698B13A46216900F0D2FAA38923F412
:10143C00906343F08003A38113E02A4600F098FBED
:10144C00064670B92169504600F0E8FA0C23CAF838
:10145C000030A3894FF0FF3043F04003A381BDE877
:10146C00F08726613E44266046466561ED1BA5600B
:10147C00464528BF464649463246206800F0B3FA36
:10148C00A36800209B1BA36023681E442660BDE854
:10149C00F08700002DE9F04F9DB003938B898046B7
:1014AC001C060D4616460DD50B695BB9402100F0A4
:1014BC0001FB2860286118B90C23C8F80030CDE076
:1014CC0040236B610023099320238DF82930DFF82A
:1014DC009CB130238DF82A3037463C4614F8013B3A
:1014EC001BB9B7EB060910D003E0252BF9D0274622
:1014FC00F3E74B46324629464046FFF771FF013071
:10150C0000F0A780099B4B4409933B78002B00F01B
:10151C00A08000234FF0FF320493079305920693AB
:10152C008DF853301A930126052221784E4800F08D
:10153C0041FA671C049B38B14B4A3C46801A06FAA8
:10154C0000F018430490EFE7D90644BF20228DF831
:10155C0053201A0744BF2B228DF8532022782A2AB5
:10156C0003D0079A00210A200BE0039A111D126880
:10157C000391002A10DA524243F0020007920490C1
:10158C000BE027463B780134303B092B03D800FB9A
:10159C0002320121F5E701B107923B782E2B1ED1C7
:1015AC007B782A2B0AD1039B02371A1D1B680392E6
:1015BC00002BB8BF4FF0FF33059310E00023194602
:1015CC000593781C0A2407463A780130303A092AE8
:1015DC0003D804FB01210123F5E703B10591032294
:1015EC003978224800F0E6F940B14023CBEB0000FB
:1015FC0003FA00F0049B0137184304903978062253
:10160C001B487E1C8DF8281000F0D4F988B1194BBA
:10161C0033B9039B073323F007030833039314E018
:10162C0003AB00932A46144B04A94046AFF3008049
:10163C0007E003AB00932A460F4B04A9404600F089
:10164C0093F8B0F1FF3F824603D0099B53440993B2
:10165C0042E7AB895B0601D4099801E04FF0FF30FB
:10166C001DB0BDE8F08F00BFD81D0008DE1D0008BE
:10167C00E21D000800000000ED1300082DE9F04702
:10168C0091461F460A698B6806469342B8BF1346BB
:10169C00C9F8003091F843200C46DDF8208012B1D7
:1016AC000133C9F800302368990642BFD9F80030DD
:1016BC000233C9F80030256815F0060510D104F185
:1016CC00190A07E00123524639463046C04701301B
:1016DC001AD00135E368D9F800209B1A9D42F1DB42
:1016EC0094F843302268003318BF012392060FD5BB
:1016FC00E118302081F843005A1C94F8451022441C
:10170C00023382F8431003E04FF0FF30BDE8F0875E
:10171C0004F1430239463046C0470130F4D0226808
:10172C00D9F80050E36802F00602042A08BF5D1BDA
:10173C002269A3680CBF25EAE57500259342C4BF56
:10174C009B1AED184FF000091A344D4509D00123AE
:10175C00224639463046C0470130D5D009F101093F
:10176C00F3E70020BDE8F0872DE9F04317460A7E29
:10177C0085B06E2A984606460C460C9B01F1430E2A
:10178C0000F0AE8011D8632A22D009D8002A00F0CC
:10179C00BB80582A40F0CA8081F84520834955E027
:1017AC00642A1ED0692A1CD0C0E0732A00F0B080D5
:1017BC0009D86F2A2ED0702A40F0B8800A6842F0FF
:1017CC0020020A603EE0752A24D0782A3AD0ADE097
:1017DC001A6801F14205111D1960136884F8423032
:1017EC00A8E021681A6811F0800F02D0111D196051
:1017FC0008E011F0400F02F10401196002D0B2F9B7
:10180C00003000E01368002B3CDA2D225B4284F898
:10181C00432037E021681A6811F0800F02D0111DA7
:10182C00196007E011F0400F02F10401196001D0BA
:10183C00138800E01368227E5C496F2A14BF0A22C9
:10184C0008221BE078225A4984F84520226818683F
:10185C0012F0800F00F104051D6003D1550601D56F
:10186C00038800E00368D00744BF42F020022260E6
:10187C001BB9226822F0200222601022002084F87A
:10188C00430001E049490A226568002DA56008DB88
:10189C00206820F0040020602BB9002D7DD1754606
:1018AC000CE0002B79D07546B3FBF2F002FB103341
:1018BC00CB5C05F8013D03460028F5D1082A0BD175
:1018CC002368DA0708D5236962689A42DEBF3023A1
:1018DC0005F8013C05F1FF35C5EB0E0323612EE045
:1018EC0008681A6810F0800F496903D0101D186041
:1018FC00136808E010F0400F02F104001860136840
:10190C0001D0198000E0196000232361754616E0B0
:10191C001A68111D1960156800216268284600F0CC
:10192C0049F808B1401B6060636804E004F14205AB
:10193C0084F8422001232361002384F84330CDF83E
:10194C0000803B4603AA21463046FFF797FE013044
:10195C0002D14FF0FF3026E023692A463946304643
:10196C00C0470130F5D023689B0710D5002504F142
:10197C00190907E001234A4639463046C047013071
:10198C00E7D00135E368039A9B1A9D42F2DBE068CD
:10199C00039B9842B8BF184605E00B7804F142054A
:1019AC0084F842308AE705B0BDE8F083E91D0008F1
:1019BC00FA1D000810B5C9B202449042034605D086
:1019CC001C7801308C42F8D1184610BD002010BD97
:1019DC0010B5431E0A44914204D011F8014B03F890
:1019EC00014FF8E710BD884210B501EB020301D896
:1019FC00421E0BE09842FBD28118D21AD34204D07B
:101A0C0013F8014D01F8014DF8E710BD994204D0CF
:101A1C0011F8014B02F8014FF8E710BD38B5054637
:101A2C00002944D051F8043C0C1F002BB8BFE4181B
:101A3C0000F0D4F81E4A1368114613B963601460A1
:101A4C0030E0A3420DD92268A018834201BF186868
:101A5C005B681218226063600C6023E0A24203D81A
:101A6C0013465A68002AF9D118681918A1420BD1EB
:101A7C002168014458188242196013D110685268C9
:101A8C00014419605A600DE002D90C232B6009E067
:101A9C0021686018824201BF1068526809182160E1
:101AAC0062605C602846BDE8384000F098B838BDEC
:101ABC007005002070B5CD1C25F0030508350C2DE4
:101ACC0038BF0C25002D064601DBA94202D90C2398
:101ADC00336046E000F082F8234B1C681A4621461E
:101AEC00A1B10B685B1B0ED40B2B03D90B60CC186C
:101AFC00CD501EE08C420BBF63684B681360636073
:101B0C0018BF0C4615E00C464968E9E7174C2368EA
:101B1C001BB9304600F052F820602946304600F0E0
:101B2C004DF8431C18D0C41C24F00304A0420DD162
:101B3C002560304600F053F804F10B00231D20F013
:101B4C000700C31A0ED05A42E25070BD211A30461B
:101B5C0000F034F80130EBD10C233360304600F048
:101B6C003EF8002070BD00BF700500206C05002001
:101B7C00F8B5074615460E4621B91146BDE8F840A2
:101B8C00FFF798BF1AB9FFF749FF2846F8BD00F0D8
:101B9C0027F885420ED929463846FFF78BFF0446B5
:101BAC0050B131462A46FFF713FF31463846FFF74E
:101BBC0035FF01E03046F8BD2046F8BD38B5064C7F
:101BCC000023054608462360FEF7D4FB431C02D1D4
:101BDC00236803B12B6038BD740500207047704733
:101BEC0051F8040C0028BEBF091851F8043CC01869
:101BFC0004387047537461636B206672616D653A8B
:101C0C000A000000205230203D2020253038580A90
:101C1C0000000000205231203D2020253038580A89
:101C2C0000000000205232203D2020253038580A78
:101C3C0000000000205233203D2020253038580A67
:101C4C000000000020523132203D20253038580A47
:101C5C0000000000204C52203D2020253038580A2E
:101C6C0000000000205043203D2020253038580A29
:101C7C000000000020505352203D20253038580AD7
:101C8C00000000004653522F4641523A0A00000011
:101C9C002043465352203D2020253038580A00005E
:101CAC002048465352203D2020253038580A000049
:101CBC002044465352203D2020253038580A00003D
:101CCC002041465352203D2020253038580A000030
:101CDC00204D4D464152203D20253038580A0000F9
:101CEC002042464152203D2020253038580A000021
:101CFC004D6973630A000000204C522F4558435F16
:101D0C0052455455524E3D20253038580A0000009B
:101D1C005B486172644661756C745D0A000000007A
:101D2C005B4275734661756C745D0A005B5573613B
:101D3C0067654661756C745D0A0000000000000068
:101D4C000000000000000000000000008000000007
:101D5C000000000000000000100000000000000067
:101D6C000000000002000000030000000000000062
:101D7C0000100000000000000000000080000000C7
:101D8C000000000000000000000000000000000047
:101D9C0000000000020000000400000000400000F1
:101DAC0000000000000000000000000080000000A7
:101DBC0040000000000000000000000000000000D7
:101DCC00000000000200000000000000232D302B5A
:101DDC002000686C4C006566674546470030313220
:101DEC003334353637383941424344454600303177
:0F1DFC00323334353637383961626364656600D7
:101E0C0078563412980000200000000000000000FA
:101E1C0000000000010203040607080900A24A049E
:101E2C00FC1F000800E100E00000000000000000C2
:101E3C000000000000000000000000000000000096
:101E4C000000000000000000000000000000000086
:101E5C000000000000000000000000000000000076
:101E6C000000000000000000000000000000000066
:101E7C000000000000000000000000000000000056
:101E8C00000000000000000028000020325476986A
:040000050800010DE1
:00000001FF
