:020000040800F2
:100000000050002021020008290200082D020008EB
:10001000A1020008A5020008ED020008000000008F
:100020000000000000000000000000003503000890
:1000300039030008000000003D030008150E000809
:100040005103000851030008510300085103000840
:100050005103000851030008510300085103000830
:10006000510300085103000851030008E509000886
:100070000D0A0008350A00085D0A0008850A000814
:10008000AD0A0008D50A0008510300085103000812
:1000900051030008510300085103000851030008F0
:1000A00051030008510300085103000851030008E0
:1000B00051030008510300085103000851030008D0
:1000C00051030008510300085103000851030008C0
:1000D00051030008211400085103000851030008CF
:1000E00051030008510300085103000800000000FC
:1000F0000000000000000000000000000000000000
:1001000000000000000000005FF808F100B583B0B7
:1001100000F0B0F9304B314A1360314A1360314B73
:10012000314A03E011681960043304322F498B42CD
:10013000F8D32A4B1A682E4B9A4204D1284B1A68DE
:100140002C4B9A4200D0FEE7234B2B4A13602B4ADC
:1001500013602B4B02E000221A600433294A9342B9
:10016000F9D3254B1B6813B9244B1B6803B1FEE779
:1001700000F08CF9694601A800F026F9224C234BC7
:100180001C1BA410002504E01F4B53F82530984792
:100190000135AC42F8DC1E4C1E4B1C1BA410002584
:1001A00004E01B4B53F8253098470135AC42F8DC8E
:1001B0000099019801F0D2F90546174C174B1C1B0A
:1001C000A41004E0013C144B53F824309847002C51
:1001D000F8DC284600F0D4F8BABADECA00000020E5
:1001E000AC00002000000020EC230008B00000203C
:1001F0007856341232547698B0000020180200204D
:10020000B00000201C0200207C0300087C030008D2
:100210007C0300087C0300087C0300087C030008C2
:1002200008B5FFF773FF00BF00BEFEE71EF0040F26
:100230000CBFEFF30880EFF309807146414A104785
:100240002DE9F04182B004468846134B5E6B9F6BEC
:100250009D6A1B6B13F0020F0DD00F4BDB6A002B56
:1002600009DA4BF6AB6100F08DF920B14FF0004296
:10027000094BDA620CE0094800F0AEF8CDF80080D6
:100280003B4632462946204600F004F900BEFEE710
:1002900002B0BDE8F08100BF00ED00E09022000850
:1002A00000BEFEE71EF0040F0CBFEFF30880EFF373
:1002B00009807146244A10472DE9F04182B0044676
:1002C0008846084B5E6B9F6B9D6A074800F084F878
:1002D000CDF800803B4632462946204600F0DAF849
:1002E00000BEFEE700ED00E0A02200081EF0040FB3
:1002F0000CBFEFF30880EFF309807146134A1047F3
:100300002DE9F04182B004468846084B5E6B9F6B36
:100310009D6A074800F060F8CDF800803B46324601
:100320002946204600F0B6F800BEFEE700ED00E0EA
:10033000AC22000800BEFEE700BEFEE700BEFEE7FE
:100340007047000041020008B902000801030008DC
:0403500000BEFEE706
:10035400EC23000800000020B0000020EC2300087B
:100364000000000000000000B00000201C0200207B
:08037400000000000000000081
:10038000FEE700BF08B50D4B1B6813B90C4A0B4BB9
:100390001A600A4B1A68C31C23F00303134409496B
:1003A0008B4206D901F09CFA0C2303604FF0FF301A
:1003B00008BD02490B60104608BD00BFB400002014
:1003C0001C020020004C002001230360014B0B6045
:1003D000704700BF040000200FB400B583B004AB29
:1003E00053F8042B01938021064801F0ABFA002852
:1003F00003DD0146034800F039F803B05DF804EB73
:1004000004B07047BC0000202DE9F04385B00446DD
:100410000F46435613BB042528462146ABBE04466F
:100420001FE03546102E28BF1025002306E014F9E2
:10043000011B04AA1A4402F8101C0133AB42F6D384
:1004400004AA1344002203F8102CE9464FF00408D4
:1004500040464946ABBE8046761B00E00E46002E65
:10046000DFD1384605B0BDE8F08300BF08B5FFF71F
:10047000CBFF08BD08B500F0FBF8024B024A9A60BA
:1004800008BD00BF00ED00E00000000808B500F066
:1004900017F908BDF8B504460D4617461E4626480E
:1004A000FFF79AFF21682548FFF796FF6168244807
:1004B000FFF792FFA1682348FFF78EFFE16822480B
:1004C000FFF78AFF21692148FFF786FF616920480D
:1004D000FFF782FFA1691F48FFF77EFFE1691E4811
:1004E000FFF77AFF1D48FFF777FF29461C48FFF703
:1004F00073FF1C4CE16A1C48FFF76EFF216B1B4821
:10050000FFF76AFFE16B1A48FFF766FF15F0800FEF
:1005100003D039461748FFF75FFF15F4004F03D0AB
:1005200031461548FFF758FF1448FFF755FF069965
:100530001348FFF751FFF8BD74210008842100081B
:1005400094210008A4210008B4210008C421000857
:10055000D4210008E4210008F42100080422000846
:100560001022000800ED00E02022000830220008E0
:100570004022000850220008602200087022000873
:100580007822000883691A888A4207D10268033AF0
:10059000012A05D80233836101207047002070478B
:1005A0000020704782B00023019300932C4A136807
:1005B00043F4803313602A4B1B6803F40033009329
:1005C000019B01330193009B1BB9019BB3F5A06F05
:1005D000F1D1234B1B6813F4003F02D00123009399
:1005E00001E000230093009B012B36D11D4B1A68BC
:1005F00042F010021A601A6822F003021A601A68A8
:1006000042F002021A60A3F580535A685A605A6891
:100610005A605A6842F480625A605A6822F47C1226
:100620005A605A6842F4E8125A601A6842F08072BE
:100630001A600B4B1B6813F0007FFAD0084B5A6806
:1006400022F003025A605A6842F002025A60044BD8
:100650005B6803F00C03082BF9D102B0704700BFB0
:10066000001002400020024008B5FFF79BFF08BDC4
:1006700008B5104B1A6842F001021A6059680E4A18
:100680000A405A601A6822F0847222F480321A609A
:100690001A6822F480221A605A6822F4FE025A6014
:1006A0004FF41F029A60FFF7DFFF4FF00062034B29
:1006B0009A6008BD001002400000FFF800ED00E065
:1006C0001F4B5B6803F00C03042B06D0082B08D0EB
:1006D0003BBB1C4A1C4B1A6026E01A4A1A4B1A6094
:1006E00022E0174A53685268C3F38343023312F47B
:1006F000803F05D1154A02FB03F3134A136013E050
:100700000F4A526812F4003F05D0104A02FB03F36F
:100710000D4A136008E00B4A02FB03F30A4A136018
:1007200002E0084A084B1A60054B5B68C3F30313E9
:10073000074AD35CDAB204490B68D3400B607047B8
:100740000010024000127A001C00002000093D0049
:100750000C0000202DE9F04F89B0D0E90289D0E9E2
:10076000042348EA020849EA0309018800230C46E9
:10077000CDE900BC84469CE014F0010F00F08E80AF
:1007800008F00F020C2A38D0082A36D0DCF818708E
:100790009E000F21A6F1200EC6F1200001FA0EF5F1
:1007A00021FA00F005430395B1400291D7E9000119
:1007B000DDE902AB20EA0A0A21EA0B0B5046594652
:1007C000C7E90001DCF81870D0B2C6F1200200259C
:1007D00000FA0EF10D4320FA02F21543019500FADA
:1007E00006F20092D7E90001DDE9005605430E4309
:1007F00028463146C7E9000150E00C2A01D0082AFA
:100800005CD1DCF818E09F000F21A7F1200AC7F1A6
:10081000200001FA0AF521FA00F005430595B940D8
:100820000491DEE90001DDE904AB20EA0A0A21EACD
:100830000B0B50465946CEE90001DCF818E00821C0
:10084000A7F1200AC7F1200001FA0AF521FA00F009
:1008500005430795B9400691DEE90001DDE906ABE5
:100860004AEA000A4BEA010B50465946CEE900011C
:10087000082A09D1DCF81810012202FA03F0CA682C
:1008800022EA0002CA6009E00C2A19D1DCF818102B
:10089000012202FA03F6CA683243CA604FEA18120C
:1008A00042EA09724FEA19119046894664080133F9
:1008B000DBB20F2B7FF660AF002002E0012000E0EA
:1008C000012009B0BDE8F08F012A02D101610020AA
:1008D000704712B94161002070470120704700BF86
:1008E000F8B500252C4640E004EB44021301214AF0
:1008F000134493F82C20062A33D81E4F6600331970
:1009000019017B1878585968084399680843D968D1
:100910000843196908435969084399690843D96923
:100920000843196A0843596A0843996A084302EB65
:100930008202910001F1804202F50032906093F84A
:100940002C000B3000F0ECF8284345B2264433016C
:100950001F4497F82C000B3000F0D0F82843C5B2A4
:1009600001E045F001050134E4B2022CBCD928466F
:10097000F8BD00BFBC220008F0B4074630B929B961
:10098000062B03D94FF6FE7082420DD8084C9D000D
:10099000EE18B0002044C26047610161816841F0F7
:1009A00001018160002000E00120F0BC704700BF21
:1009B0000000024070B4024608B906290CD8166837
:1009C00007484C006518AB00C518C65053686B60EB
:1009D0009268AA60002000E0012070BC704700BF50
:1009E0008801002008B5074B1B6813F0020F08D0E0
:1009F000044A136823F002031360034B1B6803B11E
:100A0000984708BD000002408801002008B5074B48
:100A10001B6813F0200F08D0044A136823F020034A
:100A20001360034BDB6803B1984708BD0000024028
:100A30008801002008B5074B1B6813F4007F08D01D
:100A4000044A136823F400731360034B9B6903B1DA
:100A5000984708BD000002408801002008B5074BF8
:100A60001B6813F4005F08D0044A136823F4005392
:100A70001360034B5B6A03B1984708BD0000024056
:100A80008801002008B5074B1B6813F4003F08D00D
:100A9000044A136823F400331360034B1B6B03B148
:100AA000984708BD000002408801002008B5074BA8
:100AB0001B6813F4001F08D0044A136823F40013C2
:100AC0001360034BDB6B03B1984708BD0000024085
:100AD0008801002008B5074B1B6813F0007F08D081
:100AE000044A136823F000731360034B9B6C03B13B
:100AF000984708BD0000024088010020EF280BD86D
:100B0000064B1A68410900F01F00012303FA00F0A8
:100B100042F821000020704701207047200000208B
:100B2000EF280CD8074B1968430900F01F00012279
:100B300002FA00F0603341F82300002070470120E2
:100B4000704700BF20000020184B1B6813F00C02F8
:100B500003D1174B036000207047042A03D1144BC4
:100B6000036000207047082A1BD113F4403302D1E0
:100B7000104B03600AE0B3F5403F02D10D4B036018
:100B800004E0B3F5803F0ED1094B0360074B1B68AF
:100B9000C3F383430233026803FB02F303600020C4
:100BA0007047012070470120704700BF04100240C9
:100BB00000127A0000093D0000280FDA39B101293E
:100BC00032D11D4A136818431060002070471A4A3A
:100BD000136823EA0000106000207047830F012B88
:100BE0000FD139B1012921D1144A1368184310607B
:100BF00000207047114A136823EA000010600020AB
:100C00007047430F012B13D139B1012912D10C4A7E
:100C100013681843106000207047094A136823EADC
:100C200000001060002070470020704700207047CF
:100C30000120704700207047141002401C10024031
:100C40001810024030B583B004460D4602A80023B8
:100C500040F8043DFFF778FF002840F08180019ABA
:100C60002A60474B1B6813F0F00326D0802B02D17B
:100C700052082A6021E0902B02D192082A601CE0E1
:100C8000A02B02D1D2082A6017E0B02B02D11209A2
:100C90002A6012E0C02B02D192092A600DE0D02B0D
:100CA00002D1D2092A6008E0E02B02D1120A2A60A0
:100CB00003E0F02B56D1520A2A604D2C02D100BF1E
:100CC00000205AE04E2C24D12D4B1B6813F4E06316
:100CD0004AD0B3F5806F04D12B685B082B600020ED
:100CE0004BE0B3F5A06F04D12B689B082B6000206C
:100CF00043E0B3F5C06F04D12B68DB082B60002004
:100D00003BE0B3F5E06F31D12B681B092B6000206D
:100D100033E04F2C2CD11A4B1B6813F4605329D0AD
:100D2000B3F5005F04D12B685B082B60002024E042
:100D3000B3F5205F04D12B689B082B6000201CE0DA
:100D4000B3F5405F04D12B68DB082B60002014E072
:100D5000B3F5605F10D12B681B092B6000200CE0FD
:100D600001200AE0012008E0002006E0012004E064
:100D7000012002E0002000E0012003B030BD00BFF0
:100D800004100240034A136843F00203136000207A
:100D9000704700BF10E000E0034A136843F001030E
:100DA00013600020704700BF10E000E018B1034A54
:100DB0001060002070470120704700BFDC01002058
:100DC00008B5104B1B6813F0040F09D001FB00F1AC
:100DD0000D48A0FB0131890C0C4B1960002008BDA7
:100DE000084B1B6813F0040F09D1094A0023A0FB2C
:100DF000010100F0E5FB054B1860002008BD012053
:100E000008BD00BF10E000E083DE1B4314E000E0FB
:100E100000127A0008B5034B1B680BB1984708BD58
:100E200000BF08BDDC01002010B50024204606E00C
:100E3000044800EB4410FFF78DFC0134E4B2012CB0
:100E4000F6D910BD6823000810B561B1012917D18A
:100E50000C4942001418A3000B449A7A1989586867
:100E6000FFF732FD10BD074942001418A3000B44E0
:100E70009A7A82F0010219895868FFF725FD10BDA2
:100E8000002010BD4C23000870B58AB000224FF43A
:100E90004863CDE9042300222023CDE906231B4B20
:100EA00008930AA84FF4C06320F8203DFFF752FCD6
:100EB0000546174C21464F20FFF7C4FE2843C5B214
:100EC0002468144AA2FB0436B60B4FF4163303FB16
:100ED00016442401A2FB0434A40BFFF701FD0E4AC3
:100EE000536943F0C0035361136943F4804343F0F3
:100EF000200313610022009213462146304600F081
:100F000061FA2843C0B20AB070BD00BF00080140BA
:100F1000E0010020B5814E1B0038014038B5044681
:100F20000D460648064B03600321FFF743FD0323EC
:100F30002A4604492046FFF71FFD38BDE401002082
:100F4000ED1400080438014038B504460D46064843
:100F5000064B03600421FFF72DFD01232A460449B7
:100F60002046FFF709FD38BDF001002015150008E7
:100F70000438014018B108B500F040FA08BD01205E
:100F8000704700BF18B108B500F03EFA08BD012057
:100F9000704700BF18B108B500F03CFA08BD012049
:100FA000704700BF08B5054B1B6913F4804F03D091
:100FB00000F0B8FA002008BD012008BD003801404B
:100FC0000122014B1A7070474901002008B5002327
:100FD00008E00E4901EBC0014968C95C0A44D2B27D
:100FE0000133DBB20A490878084901EBC00189786E
:100FF0008B42EED3D243D2B2064B1B789A4203D136
:10100000054B1B6803B1984708BD00BF34000020A2
:101010003C010020480100204401002008B50121C6
:101020000348FFF791FF0348FFF7ACFF08BD00BF7F
:1010300048010020CD0F000808B502210348FFF742
:1010400083FF0348FFF79EFF08BD00BF4C0100204F
:10105000C10F000870B582B0504B1B78002B40D1F7
:10106000FFF7A0FF55238DF804304D4C4D4D2B78E4
:1010700014F813305E1083EA0602181180EAA30107
:101080004A40920186EAE30680EA6310704002F06B
:10109000400242EAC01213438DF80530022101A834
:1010A000FFF73CFF2B7804EB430460783B4A107059
:1010B0003D4A5168B0FBF1F201FB12021AB18A1AE3
:1010C0000244364802700133DBB2364A13703348AB
:1010D0000278511A0170032B08D10022314B1A708B
:1010E00004E0314A52689B1A2C4A13702F4B1B782C
:1010F000002B51D000222D4B1A702D4B1B78552BF5
:101100004AD12B4B5B78581083EA00041A1182EA0B
:10111000A301614083EA811111F0400F3CD180EAC4
:10112000E30082EA63124240D201D2B203F08001AE
:101130008A4231D103F03F031D4A5370002429E055
:101140001B4B5A781B4B13F834309A4220D1194B61
:1011500003EBC4035B78012B0CD1164B03EBC403E8
:1011600099785868FFF7F0FE134B1C701348FFF78F
:1011700009FF0DE0022B0BD10E4B03EBC403997852
:101180005868FFF7CBFE0C4B1C700D48FFF7F2FEC2
:101190000134E4B2012CD3D902B070BD4E0100205D
:1011A0002C0000204A0100202400002049010020DA
:1011B0004C010020340000203C0100201D100008DC
:1011C000C511000808B5002308E00E4A02EBC00272
:1011D0005268D25C1144C9B20133DBB20A4A1078BA
:1011E000084A02EBC00292789342EED3C943074803
:1011F00001700121FFF792FE054B1868FFF7BAFE58
:1012000008BD00BF340000203C0100204801002040
:101210004001002010B5FFF737FE04460248FFF7F3
:10122000B9FE204610BD00BF3910000818B1034AAE
:101230001060002070470120704700BF440100206B
:10124000A9B90121084670470D4A12F8332082429D
:101250000AD10B4A02EBC3025278022A04D1084A8F
:1012600002EBC304656000210133DBB203E030B45C
:101270000D4600230121012BE6D9084630BC7047FA
:1012800034000020A9B90121084670470D4A12F820
:10129000332082420AD10B4A02EBC3025278012A60
:1012A00004D1084A02EBC304656000210133DBB2BC
:1012B00003E030B40D4600230121012BE6D9084696
:1012C00030BC704734000020024A136801331360B9
:1012D000704700BF1002002010B50022144B1A7096
:1012E00020E0144B03EB0213DB688BB9114B03EBCB
:1012F00002135B68012B0BD10E4C1201A3581B6823
:101300001B6898470A4B1B7804EB0314A368E3603F
:1013100007480378074A02EB0312D1680139D1600C
:1013200001330370024B1A78002ADAD010BD00BFD7
:10133000FC0100200002002070B582B001A94D2000
:10134000FFF780FC10B9044610B902E0012400E068
:101350000124FFF717FD1048FFF728FD01994FF40E
:101360007A70FFF72DFD002310E00C4800EBC3015D
:101370000B4E1D01721971510125556050F8330053
:10138000406890604968D1602B44DBB2002BECD000
:10139000204602B070BD00BFC9120008A823000893
:1013A0000002002008B5FFF7F7FC054B1B68002B77
:1013B000FBD0013B024A1360FFF78EFFF5E700BF49
:1013C0001002002010B541EA00110B4CA16013433C
:1013D000E1680B4343F4005343F00C03E360029BCA
:1013E00023612520FFF79CFB04462520FFF786FBA1
:1013F0002043C0B210BD00BF00380140014B18604F
:101400000020704758010020014B186000207047F1
:1014100050010020014B186000207047540100204B
:1014200008B52C4B1B6813F0400F1FD023F040036E
:10143000284A1360284B1B7B012B17D1264B5A6877
:101440009B689A4208D0244B1968895C214A5160F4
:101450005A6801325A6009E01F4B00225A609A60B4
:101460001A601A731D4B1B6803B19847194B1B6810
:1014700013F0200F23D01A4A127B012A1FD1184AD9
:101480005168926891420BD0124923F020030B60FF
:10149000134A106853684968C154013353600EE021
:1014A0000F4B00221A605A609A601A73094AD36877
:1014B00023F02003D3600B4B1B6803B19847054B07
:1014C0001B6813F4807F03D0074B1B6803B1984758
:1014D00008BD00BF003801406C0100205801002009
:1014E0005C010020500100205401002008B5074B8A
:1014F0001B6813F0400FFAD023F04003034A136037
:10150000034B1B6803B1984708BD00BF003801407A
:101510005801002008B5024B1B6803B1984708BD6D
:1015200050010020024A136943F001031361FEE7F2
:101530000038014008B5084B1B78612B0BD1064BD6
:101540005B78622B07D1044B9B78632B03D101217D
:101550000020FFF779FC08BD1402002008B5012126
:101560001148FFF729FB01211048FFF725FB012156
:101570000F48FFF721FBFFF757FC00210846FFF754
:1015800063FCFFF747FE0B490120FFF759FE0A49AC
:101590000120FFF777FE0948FFF748FEFFF7CCFE72
:1015A000FFF700FF08BD00BF04000020100000206E
:1015B00000400020440000201402002035150008DF
:1015C00053B94AB9002908BF00281CBF4FF0FF31AA
:1015D0004FF0FF3000F082B9ADF1080C6DE904CE98
:1015E00000F006F8DDF804E0DDE9022304B07047FE
:1015F0002DE9F04F8C460C460546099E002B4FD135
:101600008A4217466BD9B2FA82FEBEF1000F0BD0A8
:10161000CEF1200520FA05F501FA0EF345EA030C98
:1016200002FA0EF700FA0EF5390CBCFBF1F0BAB273
:1016300001FB10C300FB02F84FEA154C4CEA0344CF
:10164000A04509D9E41900F1FF3380F02881A045B5
:1016500040F2258102383C44C8EB0404B4FBF1F3AA
:1016600001FB134C03FB02F2ACB244EA0C418A4288
:1016700009D9C91903F1FF3480F00F818A4240F281
:101680000C81023B39448A1A43EA00400021002EB3
:1016900063D022FA0EF2002386E80C00BDE8F08F3A
:1016A0008B4207D9002E56D0002186E8110008464B
:1016B000BDE8F08FB3FA83F1002940F09380A34294
:1016C00002D3824200F2FE80851A64EB03039C463B
:1016D0000120002E41D086E82010BDE8F08F12B91D
:1016E0000127B7FBF2F7B7FA87FEBEF1000F36D13C
:1016F000E41B4FEA17481FFA87F90121B4FBF8F3FE
:1017000008FB134409FB03F24FEA154C4CEA04446E
:10171000A24207D9E41903F1FF3002D2A24200F23B
:10172000D3800346A41AB4FBF8F008FB104809FB69
:1017300000F9ACB244EA0842914507D9D21900F148
:10174000FF3402D2914500F2BA802046C9EB020272
:1017500040EA03409BE731463046BDE8F08F07FA88
:101760000EF7CEF1200C24FA0CF34FEA1748B3FB26
:10177000F8FA1FFA87F908FB1A3520FA0CFC04FA6C
:101780000EF40AFB09FB4CEA040C4FEA1C4242EA45
:1017900005439B4500FA0EF50AD9DB190AF1FF3221
:1017A00080F08B809B4540F28880AAF1020A3B447E
:1017B000CBEB0303B3FBF8F008FB103300FB09F499
:1017C0001FFA8CFC4CEA03439C4207D9DB1900F159
:1017D000FF326ED29C426CD902383B441C1B40EA5B
:1017E0000A418BE7C1F1200E8B4022FA0EFC4CEA35
:1017F000030C24FA0EF74FEA1C49B7FBF9FA1FFA5B
:101800008CF309FB1A7720FA0EF88C400AFB03F5DB
:1018100048EA04044FEA144848EA0747BD4202FA7E
:1018200001F200FA01FB09D917EB0C070AF1FF30AE
:1018300041D2BD423FD9AAF1020A67447F1BB7FBE0
:10184000F9F509FB157705FB03F3A4B244EA074752
:10185000BB4208D917EB0C0705F1FF3027D2BB427A
:1018600025D9023D674445EA0A40A0FB0289FF1AD8
:101870004F4545464C4614D329D066B3BBEB050310
:1018800067EB040707FA0EFECB40CF404EEA030396
:1018900086E888000021BDE8F08F2346F3E618466D
:1018A000DAE6B8EB020569EB0C040138E5E705461A
:1018B000D9E7104692E78246C0E7924678E70238B9
:1018C0003A4443E7084604E7023B3C442AE7C34561
:1018D000E7D33C46D1E73146BDE8F08F704700BF03
:1018E000014B1868704700BFA800002030B5141ED7
:1018F00005469BB0184604DA8B232B604FF0FF306F
:101900001DE04FF40273ADF80C300CBF234604F118
:10191000FF33029305934FF6FF7300910491ADF8E6
:101920000E3002461E9B6946284600F073F8431CA1
:10193000BCBF8B232B6014B1009B00221A701BB01C
:1019400030BD000007B5009313460A460146034820
:101950000068FFF7CBFF03B05DF804FBA800002090
:101960002DE9F0478E6882469E420C469146984685
:101970003ED88A8912F4906F3AD02568096902230B
:101980006F1A656905EB450595FBF3F57B1C434430
:101990009D4238BF1D4653050FD5294600F04AFB2E
:1019A000064698B13A46216900F0D2FAA38923F499
:1019B000906343F08003A38113E02A4600F098FB74
:1019C000064670B92169504600F0E8FA0C23CAF8BF
:1019D0000030A3894FF0FF3043F04003A381BDE8FE
:1019E000F08726613E44266046466561ED1BA56092
:1019F000464528BF464649463246206800F0B3FABD
:101A0000A36800209B1BA36023681E442660BDE8DA
:101A1000F08700002DE9F04F9DB003938B8980463D
:101A20001C060D4616460DD50B695BB9402100F02A
:101A300001FB2860286118B90C23C8F80030CDE0FC
:101A400040236B610023099320238DF82930DFF8B0
:101A50009CB130238DF82A3037463C4614F8013BC0
:101A60001BB9B7EB060910D003E0252BF9D02746A8
:101A7000F3E74B46324629464046FFF771FF0130F7
:101A800000F0A780099B4B4409933B78002B00F0A2
:101A9000A08000234FF0FF32049307930592069332
:101AA0008DF853301A930126052221784E4800F014
:101AB00041FA671C049B38B14B4A3C46801A06FA2F
:101AC00000F018430490EFE7D90644BF20228DF8B8
:101AD00053201A0744BF2B228DF8532022782A2A3C
:101AE00003D0079A00210A200BE0039A111D126807
:101AF0000391002A10DA524243F002000792049048
:101B00000BE027463B780134303B092B03D800FB20
:101B100002320121F5E701B107923B782E2B1ED14D
:101B20007B782A2B0AD1039B02371A1D1B6803926C
:101B3000002BB8BF4FF0FF33059310E00023194688
:101B40000593781C0A2407463A780130303A092A6E
:101B500003D804FB01210123F5E703B1059103221A
:101B60003978224800F0E6F940B14023CBEB000081
:101B700003FA00F0049B01371843049039780622D9
:101B80001B487E1C8DF8281000F0D4F988B1194B41
:101B900033B9039B073323F007030833039314E09F
:101BA00003AB00932A46144B04A94046AFF30080D0
:101BB00007E003AB00932A460F4B04A9404600F010
:101BC00093F8B0F1FF3F824603D0099B5344099339
:101BD00042E7AB895B0601D4099801E04FF0FF3082
:101BE0001DB0BDE8F08F00BFB0230008B623000889
:101BF000BA23000800000000611900082DE9F04731
:101C000091461F460A698B6806469342B8BF134641
:101C1000C9F8003091F843200C46DDF8208012B15D
:101C20000133C9F800302368990642BFD9F8003063
:101C30000233C9F80030256815F0060510D104F10B
:101C4000190A07E00123524639463046C0470130A1
:101C50001AD00135E368D9F800209B1A9D42F1DBC8
:101C600094F843302268003318BF012392060FD541
:101C7000E118302081F843005A1C94F845102244A2
:101C8000023382F8431003E04FF0FF30BDE8F087E5
:101C900004F1430239463046C0470130F4D022688F
:101CA000D9F80050E36802F00602042A08BF5D1B61
:101CB0002269A3680CBF25EAE57500259342C4BFDD
:101CC0009B1AED184FF000091A344D4509D0012335
:101CD000224639463046C0470130D5D009F10109C6
:101CE000F3E70020BDE8F0872DE9F04317460A7EB0
:101CF00085B06E2A984606460C460C9B01F1430EB1
:101D000000F0AE8011D8632A22D009D8002A00F052
:101D1000BB80582A40F0CA8081F84520834955E0AD
:101D2000642A1ED0692A1CD0C0E0732A00F0B0805B
:101D300009D86F2A2ED0702A40F0B8800A6842F085
:101D400020020A603EE0752A24D0782A3AD0ADE01D
:101D50001A6801F14205111D1960136884F84230B8
:101D6000A8E021681A6811F0800F02D0111D1960D7
:101D700008E011F0400F02F10401196002D0B2F93D
:101D8000003000E01368002B3CDA2D225B4284F81F
:101D9000432037E021681A6811F0800F02D0111D2E
:101DA000196007E011F0400F02F10401196001D041
:101DB000138800E01368227E5C496F2A14BF0A2250
:101DC00008221BE078225A4984F8452022681868C6
:101DD00012F0800F00F104051D6003D1550601D5F6
:101DE000038800E00368D00744BF42F0200222606D
:101DF0001BB9226822F0200222601022002084F801
:101E0000430001E049490A226568002DA56008DB0E
:101E1000206820F0040020602BB9002D7DD175468C
:101E20000CE0002B79D07546B3FBF2F002FB1033C7
:101E3000CB5C05F8013D03460028F5D1082A0BD1FB
:101E40002368DA0708D5236962689A42DEBF302327
:101E500005F8013C05F1FF35C5EB0E0323612EE0CB
:101E600008681A6810F0800F496903D0101D1860C7
:101E7000136808E010F0400F02F1040018601368C6
:101E800001D0198000E0196000232361754616E037
:101E90001A68111D1960156800216268284600F053
:101EA00049F808B1401B6060636804E004F1420532
:101EB00084F8422001232361002384F84330CDF8C5
:101EC00000803B4603AA21463046FFF797FE0130CB
:101ED00002D14FF0FF3026E023692A4639463046CA
:101EE000C0470130F5D023689B0710D5002504F1C9
:101EF000190907E001234A4639463046C0470130F8
:101F0000E7D00135E368039A9B1A9D42F2DBE06853
:101F1000039B9842B8BF184605E00B7804F14205D0
:101F200084F842308AE705B0BDE8F083C123000899
:101F3000D223000810B5C9B202449042034605D02E
:101F40001C7801308C42F8D1184610BD002010BD1D
:101F500010B5431E0A44914204D011F8014B03F816
:101F6000014FF8E710BD884210B501EB020301D81C
:101F7000421E0BE09842FBD28118D21AD34204D001
:101F800013F8014D01F8014DF8E710BD994204D056
:101F900011F8014B02F8014FF8E710BD38B50546BE
:101FA000002944D051F8043C0C1F002BB8BFE418A2
:101FB00000F0D4F81E4A1368114613B96360146028
:101FC00030E0A3420DD92268A018834201BF1868EF
:101FD0005B681218226063600C6023E0A24203D8A1
:101FE00013465A68002AF9D118681918A1420BD172
:101FF0002168014458188242196013D11068526850
:10200000014419605A600DE002D90C232B6009E0ED
:1020100021686018824201BF106852680918216067
:1020200062605C602846BDE8384000F098B838BD72
:102030008001002070B5CD1C25F0030508350C2D5E
:1020400038BF0C25002D064601DBA94202D90C231E
:10205000336046E000F082F8234B1C681A462146A4
:10206000A1B10B685B1B0ED40B2B03D90B60CC18F2
:10207000CD501EE08C420BBF63684B6813606360F9
:1020800018BF0C4615E00C464968E9E7174C236871
:102090001BB9304600F052F820602946304600F067
:1020A0004DF8431C18D0C41C24F00304A0420DD1E9
:1020B0002560304600F053F804F10B00231D20F09A
:1020C0000700C31A0ED05A42E25070BD211A3046A2
:1020D00000F034F80130EBD10C233360304600F0CF
:1020E0003EF8002070BD00BF800100207C01002070
:1020F000F8B5074615460E4621B91146BDE8F84029
:10210000FFF798BF1AB9FFF749FF2846F8BD00F05E
:1021100027F885420ED929463846FFF78BFF04463B
:1021200050B131462A46FFF713FF31463846FFF7D4
:1021300035FF01E03046F8BD2046F8BD38B5064C05
:102140000023054608462360FEF71CF9431C02D114
:10215000236803B12B6038BD8401002070477047AD
:1021600051F8040C0028BEBF091851F8043CC018EF
:1021700004387047537461636B206672616D653A11
:102180000A000000205230203D2020253038580A17
:1021900000000000205231203D2020253038580A10
:1021A00000000000205232203D2020253038580AFF
:1021B00000000000205233203D2020253038580AEE
:1021C0000000000020523132203D20253038580ACE
:1021D00000000000204C52203D2020253038580AB5
:1021E00000000000205043203D2020253038580AB0
:1021F0000000000020505352203D20253038580A5E
:10220000000000004653522F4641523A0A00000097
:102210002043465352203D2020253038580A0000E4
:102220002048465352203D2020253038580A0000CF
:102230002044465352203D2020253038580A0000C3
:102240002041465352203D2020253038580A0000B6
:10225000204D4D464152203D20253038580A00007F
:102260002042464152203D2020253038580A0000A7
:102270004D6973630A000000204C522F4558435F9C
:1022800052455455524E3D20253038580A00000022
:102290005B486172644661756C745D0A0000000001
:1022A0005B4275734661756C745D0A005B557361C2
:1022B00067654661756C745D0A00000000000000EF
:1022C000000000000000000000000000800000008E
:1022D00000000000000000001000000000000000EE
:1022E00000000000020000000300000000000000E9
:1022F000000000000000000000000000800000005E
:1023000000000000000000000000000000000000CD
:102310000000000002000000040000000040000077
:10232000000000000000000000000000800000002D
:10233000400000000000000000000000000000005D
:10234000000000000200000000000000000000008B
:1023500000100140002000000100000000080140C2
:10236000020000000000000000200000000000004B
:10237000000000000000000000000000000010004D
:1023800000100140000000000200000000000000FA
:10239000000000000000000010000000000000002D
:1023A00000080140000000002400002000000000A0
:1023B000232D302B2000686C4C006566674546472E
:1023C00000303132333435363738394142434445B1
:1023D0004600303132333435363738396162636420
:0323E0006566002F
:0823E4000CF2FF7F0100000074
:1023EC0078563412B80000200000000000000000F5
:1023FC0000000000010203040607080900A24A04B9
:10240C0000E100E05510000805000000010A02057B
:10241C00030FFFFF01020300000000000101030095
:10242C0000000000616263FF00000000000000007B
:10243C000000000000000000000000000000000090
:10244C000000000000000000000000000000000080
:10245C000000000000000000000000000000000070
:10246C000000000000000000000000000000000060
:10247C000000000000000000000000000000000050
:10248C000000000000000000480000203254769844
:040000050800010DE1
:00000001FF
